2345678901ACC0001234Lonkonto            000180050DKK
3456789012ACC0002345Lonkonto            000320100DKK
3456789012ACC0006789Budgetkonto         002500000DKK
3456789012ACC0011111Investeringskonto   001250075DKK
4567890123ACC0003456Lonkonto            000095025DKK
4567890123ACC0007890Pensionskonto       012500000DKK
5678901234ACC0004567Lonkonto            000410150DKK
5678901234ACC0008901Opsparingskonto     007500025DKK
5678901234ACC0012345Erhvervskonto       000875000DKK
5678901234ACC0054321Budgetkonto         000125050DKK
1234567890ACC0005678Lonkonto            000250075DKK
1234567890ACC0009012Opsparingskonto     005000000DKK
